:100000000000012095050000BD050000BF050000AF
:10001000C1050000C3050000C50500000000000088
:10002000000000000000000000000000C705000004
:10003000C905000000000000CB050000CD05000050
:10004000CF050000CF050000CF050000CF05000060
:10005000CF050000CF050000CF050000CF05000050
:10006000CF050000CF050000CF050000CF05000040
:10007000CF050000CF050000CF050000CF05000030
:10008000CF05000019060000CF050000CF050000D5
:10009000CF050000CF050000CF050000CF05000010
:1000A000CF050000CF050000CF050000CF05000000
:1000B000CF050000CF050000000000000000000098
:1000C000CF050000CF050000CF050000CF050000E0
:1000D000CF050000CF050000CF05000000000000A4
:1000E0000000000000000000000000000000000010
:1000F0000000000000000000000000000000000000
:1001000000000000000000000000000000000000EF
:1001100000000000000000000000000000000000DF
:10040000044B05481B1A062B02D9044B03B11847AD
:10041000704700BF73000020700000200000000043
:1004200005490648091A891001EBD171491002D01B
:10043000034B03B118477047700000207000002084
:100440000000000010B5064C237843B9FFF7D8FF31
:10045000044B13B10448AFF300800123237010BD97
:100460007000002000000000040A000008B5084BDE
:100470001BB108490848AFF300800848036813B966
:10048000BDE80840CCE7064B002BF9D09847F7E7CA
:100490000000000074000020040A00006C0000202E
:1004A00000000000154B002B08BF134B9D46A3F521
:1004B000803A00218B460F461348144A121A00F066
:1004C00055FA0F4B002B00D098470E4B002B00D055
:1004D00098470020002104000D000D48002802D09C
:1004E0000C48AFF3008000F01BFA2000290000F058
:1004F000D1F900F001FA00BF00000800000001205F
:1005000000000000000000007000002090000020AB
:10051000000000000000000008B50121062000F0E6
:1005200091F80121072000F08DF80121082000F04A
:1005300089F801210920BDE8084000F083B808B51A
:100540000121062000F0A0F80121072000F09CF80E
:100550000121082000F098F80121092000F094F80A
:100560004FF47A7000F04AF80021062000F08CF871
:100570000021072000F088F80021082000F084F80E
:100580000920002100F080F84FF47A70BDE808409F
:1005900000F034B80649074A074B9B1A03DD043BB9
:1005A000C858D050FBDC00F0BBF8FFF77BFF000021
:1005B000100A00000000002070000020FEE7FEE7A7
:1005C000FEE7FEE7FEE7FEE7FEE7FEE7FEE7FEE703
:1005D000084B1868084B30B5D3F8041500220A43BD
:1005E0004FF47A71A2FB014501FB0055E00B40EA94
:1005F000454030BD8C0000200010014038B5044655
:1006000048B1FFF7E5FF054600F01AF8FFF7E0FFF5
:10061000401B8442F8D838BD074B0022C3F80421A0
:1006200082B0D3F80431054A0193019B136801336A
:10063000DBB2136002B07047001001408C00002054
:100640007047000018281BD80E4B53F820300329A0
:1006500016D8DFE801F0020E060A03F5E073002168
:100660000AE003F5E0730C2106E003F5E0730421D2
:1006700002E003F5E07303214FF0A04242F823109B
:10068000704700BF9809000018280CD8064B53F893
:10069000200001234FF0A042834011B9C2F80C356D
:1006A0007047C2F808357047980900000C4B1B785A
:1006B000062B10D10B4B1B681A070CD10A4B18687C
:1006C00000F0F003302B08D000F0E000A0F1400370
:1006D000584258417047002070470120704700BFC2
:1006E000E00F00F0E40F00F0E80F00F0094B1B787A
:1006F000062B0CD1084B1B681A0708D1074B18684A
:1007000000F0F000A0F1300358425841704700203B
:10071000704700BFE00F00F0E40F00F0E80F00F0BA
:1007200008B5FFF7E3FF10B14B4B4C4A1A60FFF7D7
:10073000BDFF28B14A4B4B4A1B68C3F342331360D9
:10074000FFF7D4FF20B1484AD36823F08073D36009
:10075000FFF7ACFF40B14FF080430022C3F80C21FB
:10076000C3F81021C3F83825FFF7C0FF10B13F4B85
:1007700003221A60FFF7BAFF40B13D4B05221A6011
:1007800001229A6700229A603F225A60394B1B78F7
:10079000062B09D1384B1B681B0705D1374B1B684B
:1007A00003F0F003502B0ED0354AD2F8883043F4D2
:1007B0007003C2F88830BFF34F8FBFF36F8F314B98
:1007C000314A1A6008BD4FF08052304BD2F8041401
:1007D000C3F82015D2F80814C3F82415D2F80C1465
:1007E000C3F82815D2F81014C3F82C15D2F8141435
:1007F000C3F83015D2F81814C3F83415D2F81C1405
:10080000C3F84015D2F82014C3F84415D2F82414C4
:10081000C3F84815D2F82814C3F84C15D2F82C1494
:10082000C3F85015D2F83014C3F85415D2F8341464
:10083000C3F86015D2F83814C3F86415D2F83C1424
:10084000C3F86815D2F84014C3F86C15D2F84424E4
:10085000C3F87025A8E700BF74C007400DF0ADBA1B
:10086000440200103C050040F0ED00E0A00500400F
:1008700010560040E00F00F0E40F00F0E80F00F029
:1008800000ED00E0000000200090D00300C0004018
:100890007047000008B500F011F8FFF7F9FF0120DC
:1008A000FFF7ACFEFFF738FE034CFFF748FE002CC5
:1008B000FBD0AFF30080F8E7000000000D4BE02212
:1008C00083F811234FF40032C3F880211A604FF0EF
:1008D000804300210122C3F818159A6003F588337C
:1008E000C3F808154FF48271C3F84413C3F8041316
:1008F0001A60704700E100E008B5074B044613B1E9
:100900000021AFF30080054B1868836A03B1984754
:10091000204600F033F800BF00000000000A00008D
:1009200070B50E4B0E4CE41AA41000251E46A542CD
:1009300004D056F8253098470135F8E700F020F844
:10094000084C094BE41AA41000251E46A54204D009
:1009500056F8253098470135F8E770BD640000204F
:100960006400002068000020640000200244034668
:10097000934202D003F8011BFAE77047FEE700BF7D
:10098000F8B500BFF8BC08BC9E467047F8B500BF7C
:10099000F8BC08BC9E4670470B0000000C0000002D
:1009A0000D0000000E0000000F000000100000000D
:1009B00011000000120000001300000014000000ED
:1009C00016000000170000001800000019000000C9
:1009D00003000000040000001C0000001D000000D7
:1009E0001E0000001F0000001A0000001B00000095
:1009F00008000000060000000200000043000000A4
:080A00000400002000000000CA
:080A08009CFAFF7F01000000D1
:100A10000090D00300000000000000000000000073
:100A200000000000000000000000000000000000C6
:100A300000000000FC0900000000000000000000B1
:100A400000000000000000000000000000000000A6
:100A50000000000000000000000000000000000096
:100A60000000000000000000000000000000000086
:100A7000000000006D0400004504000000000000BC
:04000003000005955F
:00000001FF
